{
  "contractName": "AssetTracker",
  "abi": [
    {
      "anonymous": false,
      "inputs": [
        {
          "indexed": false,
          "internalType": "uint256",
          "name": "id",
          "type": "uint256"
        },
        {
          "indexed": false,
          "internalType": "string",
          "name": "currentPosition",
          "type": "string"
        },
        {
          "indexed": false,
          "internalType": "string",
          "name": "status",
          "type": "string"
        },
        {
          "indexed": false,
          "internalType": "uint256",
          "name": "verified",
          "type": "uint256"
        }
      ],
      "name": "BloodCreate",
      "type": "event"
    },
    {
      "anonymous": false,
      "inputs": [
        {
          "indexed": false,
          "internalType": "uint256",
          "name": "id",
          "type": "uint256"
        },
        {
          "indexed": false,
          "internalType": "string",
          "name": "newOwner",
          "type": "string"
        },
        {
          "indexed": false,
          "internalType": "uint256",
          "name": "verified",
          "type": "uint256"
        },
        {
          "indexed": false,
          "internalType": "string",
          "name": "status",
          "type": "string"
        }
      ],
      "name": "BloodTransfer",
      "type": "event"
    },
    {
      "constant": true,
      "inputs": [
        {
          "internalType": "uint256",
          "name": "",
          "type": "uint256"
        }
      ],
      "name": "BloodStore",
      "outputs": [
        {
          "internalType": "uint256",
          "name": "id",
          "type": "uint256"
        },
        {
          "internalType": "string",
          "name": "uniqueid",
          "type": "string"
        },
        {
          "internalType": "string",
          "name": "batch",
          "type": "string"
        },
        {
          "internalType": "string",
          "name": "aadhar",
          "type": "string"
        },
        {
          "internalType": "string",
          "name": "currentPosition",
          "type": "string"
        },
        {
          "internalType": "string",
          "name": "blood_group",
          "type": "string"
        },
        {
          "internalType": "string",
          "name": "expiry_date",
          "type": "string"
        },
        {
          "internalType": "uint256",
          "name": "verified",
          "type": "uint256"
        },
        {
          "internalType": "uint256",
          "name": "statusCount",
          "type": "uint256"
        }
      ],
      "payable": false,
      "stateMutability": "view",
      "type": "function"
    },
    {
      "constant": true,
      "inputs": [
        {
          "internalType": "address",
          "name": "",
          "type": "address"
        }
      ],
      "name": "LoginStore",
      "outputs": [
        {
          "internalType": "address payable",
          "name": "user_address",
          "type": "address"
        },
        {
          "internalType": "string",
          "name": "email",
          "type": "string"
        },
        {
          "internalType": "string",
          "name": "password",
          "type": "string"
        },
        {
          "internalType": "string",
          "name": "name",
          "type": "string"
        },
        {
          "internalType": "string",
          "name": "typeID",
          "type": "string"
        },
        {
          "internalType": "string",
          "name": "addressUser",
          "type": "string"
        },
        {
          "internalType": "string",
          "name": "phone",
          "type": "string"
        },
        {
          "internalType": "string",
          "name": "location",
          "type": "string"
        }
      ],
      "payable": false,
      "stateMutability": "view",
      "type": "function"
    },
    {
      "constant": true,
      "inputs": [],
      "name": "bloodCount",
      "outputs": [
        {
          "internalType": "uint256",
          "name": "",
          "type": "uint256"
        }
      ],
      "payable": false,
      "stateMutability": "view",
      "type": "function"
    },
    {
      "constant": true,
      "inputs": [],
      "name": "userCount",
      "outputs": [
        {
          "internalType": "uint256",
          "name": "",
          "type": "uint256"
        }
      ],
      "payable": false,
      "stateMutability": "view",
      "type": "function"
    },
    {
      "constant": false,
      "inputs": [
        {
          "internalType": "string",
          "name": "_uniqueid",
          "type": "string"
        },
        {
          "internalType": "string",
          "name": "_batch",
          "type": "string"
        },
        {
          "internalType": "string",
          "name": "_aadhar",
          "type": "string"
        },
        {
          "internalType": "string",
          "name": "_currentPosition",
          "type": "string"
        },
        {
          "internalType": "string",
          "name": "_blood_group",
          "type": "string"
        },
        {
          "internalType": "string",
          "name": "_expiry_date",
          "type": "string"
        },
        {
          "internalType": "string",
          "name": "_status",
          "type": "string"
        }
      ],
      "name": "createAsset",
      "outputs": [
        {
          "internalType": "uint256",
          "name": "",
          "type": "uint256"
        }
      ],
      "payable": false,
      "stateMutability": "nonpayable",
      "type": "function"
    },
    {
      "constant": true,
      "inputs": [
        {
          "internalType": "uint256",
          "name": "_id",
          "type": "uint256"
        }
      ],
      "name": "getBlood",
      "outputs": [
        {
          "internalType": "string",
          "name": "",
          "type": "string"
        },
        {
          "internalType": "string",
          "name": "",
          "type": "string"
        },
        {
          "internalType": "string",
          "name": "",
          "type": "string"
        },
        {
          "internalType": "string",
          "name": "",
          "type": "string"
        },
        {
          "internalType": "string",
          "name": "",
          "type": "string"
        },
        {
          "internalType": "string",
          "name": "",
          "type": "string"
        }
      ],
      "payable": false,
      "stateMutability": "view",
      "type": "function"
    },
    {
      "constant": true,
      "inputs": [
        {
          "internalType": "uint256",
          "name": "_id",
          "type": "uint256"
        }
      ],
      "name": "getBlood2",
      "outputs": [
        {
          "internalType": "uint256",
          "name": "",
          "type": "uint256"
        },
        {
          "internalType": "uint256",
          "name": "",
          "type": "uint256"
        }
      ],
      "payable": false,
      "stateMutability": "view",
      "type": "function"
    },
    {
      "constant": false,
      "inputs": [
        {
          "internalType": "uint256",
          "name": "_id",
          "type": "uint256"
        },
        {
          "internalType": "string",
          "name": "_oldUser",
          "type": "string"
        },
        {
          "internalType": "uint256",
          "name": "verified",
          "type": "uint256"
        },
        {
          "internalType": "string",
          "name": "_status",
          "type": "string"
        },
        {
          "internalType": "string",
          "name": "_newUser",
          "type": "string"
        }
      ],
      "name": "transferAsset",
      "outputs": [
        {
          "internalType": "string",
          "name": "",
          "type": "string"
        }
      ],
      "payable": false,
      "stateMutability": "nonpayable",
      "type": "function"
    },
    {
      "constant": true,
      "inputs": [],
      "name": "getBloodCount",
      "outputs": [
        {
          "internalType": "uint256",
          "name": "",
          "type": "uint256"
        }
      ],
      "payable": false,
      "stateMutability": "view",
      "type": "function"
    },
    {
      "constant": true,
      "inputs": [
        {
          "internalType": "uint256",
          "name": "_id",
          "type": "uint256"
        },
        {
          "internalType": "uint256",
          "name": "_statusCount",
          "type": "uint256"
        }
      ],
      "name": "getStatus",
      "outputs": [
        {
          "internalType": "uint256",
          "name": "",
          "type": "uint256"
        },
        {
          "internalType": "string",
          "name": "",
          "type": "string"
        },
        {
          "internalType": "string",
          "name": "",
          "type": "string"
        },
        {
          "internalType": "uint256",
          "name": "",
          "type": "uint256"
        }
      ],
      "payable": false,
      "stateMutability": "view",
      "type": "function"
    },
    {
      "constant": false,
      "inputs": [
        {
          "internalType": "string",
          "name": "_name",
          "type": "string"
        },
        {
          "internalType": "address payable",
          "name": "user_address",
          "type": "address"
        },
        {
          "internalType": "string",
          "name": "_email",
          "type": "string"
        },
        {
          "internalType": "string",
          "name": "_password",
          "type": "string"
        },
        {
          "internalType": "string",
          "name": "_typeID",
          "type": "string"
        },
        {
          "internalType": "string",
          "name": "_address",
          "type": "string"
        },
        {
          "internalType": "string",
          "name": "_phone",
          "type": "string"
        },
        {
          "internalType": "string",
          "name": "_location",
          "type": "string"
        }
      ],
      "name": "addidentity",
      "outputs": [],
      "payable": false,
      "stateMutability": "nonpayable",
      "type": "function"
    },
    {
      "constant": true,
      "inputs": [
        {
          "internalType": "string",
          "name": "_name",
          "type": "string"
        }
      ],
      "name": "getemail",
      "outputs": [
        {
          "internalType": "string",
          "name": "",
          "type": "string"
        }
      ],
      "payable": false,
      "stateMutability": "view",
      "type": "function"
    },
    {
      "constant": true,
      "inputs": [
        {
          "internalType": "address payable",
          "name": "_add",
          "type": "address"
        },
        {
          "internalType": "string",
          "name": "_email",
          "type": "string"
        },
        {
          "internalType": "string",
          "name": "_password",
          "type": "string"
        }
      ],
      "name": "getLogin",
      "outputs": [
        {
          "internalType": "string",
          "name": "",
          "type": "string"
        },
        {
          "internalType": "string",
          "name": "",
          "type": "string"
        },
        {
          "internalType": "string",
          "name": "",
          "type": "string"
        },
        {
          "internalType": "string",
          "name": "",
          "type": "string"
        },
        {
          "internalType": "string",
          "name": "",
          "type": "string"
        }
      ],
      "payable": false,
      "stateMutability": "view",
      "type": "function"
    },
    {
      "constant": true,
      "inputs": [],
      "name": "getUserCount",
      "outputs": [
        {
          "internalType": "uint256",
          "name": "",
          "type": "uint256"
        }
      ],
      "payable": false,
      "stateMutability": "view",
      "type": "function"
    }
  ],
  "bytecode": "0x60806040526000600155600060045534801561001a57600080fd5b506140558061002a6000396000f3fe608060405234801561001057600080fd5b50600436106100ea5760003560e01c8063a745da651161008c578063b6e857c611610066578063b6e857c6146110fb578063be3cba0d14611119578063c88b53a5146114b4578063e8c67a251461178c576100ea565b8063a745da6514610d3c578063acfabc1114610e67578063b5cb15f7146110dd576100ea565b8063672af74e116100c8578063672af74e146101745780637211dde4146105cd5780638afd22c3146107015780639bc24b54146109c4576100ea565b806307973ccf146100ef57806339b67b281461010d57806351f650e614610156575b600080fd5b6100f7611bf2565b6040518082815260200191505060405180910390f35b6101396004803603602081101561012357600080fd5b8101908080359060200190929190505050611bf8565b604051808381526020018281526020019250505060405180910390f35b61015e611c30565b6040518082815260200191505060405180910390f35b6105b7600480360360e081101561018a57600080fd5b81019080803590602001906401000000008111156101a757600080fd5b8201836020820111156101b957600080fd5b803590602001918460018302840111640100000000831117156101db57600080fd5b91908080601f016020809104026020016040519081016040528093929190818152602001838380828437600081840152601f19601f8201169050808301925050505050505091929192908035906020019064010000000081111561023e57600080fd5b82018360208201111561025057600080fd5b8035906020019184600183028401116401000000008311171561027257600080fd5b91908080601f016020809104026020016040519081016040528093929190818152602001838380828437600081840152601f19601f820116905080830192505050505050509192919290803590602001906401000000008111156102d557600080fd5b8201836020820111156102e757600080fd5b8035906020019184600183028401116401000000008311171561030957600080fd5b91908080601f016020809104026020016040519081016040528093929190818152602001838380828437600081840152601f19601f8201169050808301925050505050505091929192908035906020019064010000000081111561036c57600080fd5b82018360208201111561037e57600080fd5b803590602001918460018302840111640100000000831117156103a057600080fd5b91908080601f016020809104026020016040519081016040528093929190818152602001838380828437600081840152601f19601f8201169050808301925050505050505091929192908035906020019064010000000081111561040357600080fd5b82018360208201111561041557600080fd5b8035906020019184600183028401116401000000008311171561043757600080fd5b91908080601f016020809104026020016040519081016040528093929190818152602001838380828437600081840152601f19601f8201169050808301925050505050505091929192908035906020019064010000000081111561049a57600080fd5b8201836020820111156104ac57600080fd5b803590602001918460018302840111640100000000831117156104ce57600080fd5b91908080601f016020809104026020016040519081016040528093929190818152602001838380828437600081840152601f19601f8201169050808301925050505050505091929192908035906020019064010000000081111561053157600080fd5b82018360208201111561054357600080fd5b8035906020019184600183028401116401000000008311171561056557600080fd5b91908080601f016020809104026020016040519081016040528093929190818152602001838380828437600081840152601f19601f820116905080830192505050505050509192919290505050611c3a565b6040518082815260200191505060405180910390f35b610686600480360360208110156105e357600080fd5b810190808035906020019064010000000081111561060057600080fd5b82018360208201111561061257600080fd5b8035906020019184600183028401116401000000008311171561063457600080fd5b91908080601f016020809104026020016040519081016040528093929190818152602001838380828437600081840152601f19601f820116905080830192505050505050509192919290505050611f76565b6040518080602001828103825283818151815260200191508051906020019080838360005b838110156106c65780820151818401526020810190506106ab565b50505050905090810190601f1680156106f35780820380516001836020036101000a031916815260200191505b509250505060405180910390f35b61072d6004803603602081101561071757600080fd5b8101908080359060200190929190505050612081565b6040518080602001806020018060200180602001806020018060200187810387528d818151815260200191508051906020019080838360005b83811015610781578082015181840152602081019050610766565b50505050905090810190601f1680156107ae5780820380516001836020036101000a031916815260200191505b5087810386528c818151815260200191508051906020019080838360005b838110156107e75780820151818401526020810190506107cc565b50505050905090810190601f1680156108145780820380516001836020036101000a031916815260200191505b5087810385528b818151815260200191508051906020019080838360005b8381101561084d578082015181840152602081019050610832565b50505050905090810190601f16801561087a5780820380516001836020036101000a031916815260200191505b5087810384528a818151815260200191508051906020019080838360005b838110156108b3578082015181840152602081019050610898565b50505050905090810190601f1680156108e05780820380516001836020036101000a031916815260200191505b50878103835289818151815260200191508051906020019080838360005b838110156109195780820151818401526020810190506108fe565b50505050905090810190601f1680156109465780820380516001836020036101000a031916815260200191505b50878103825288818151815260200191508051906020019080838360005b8381101561097f578082015181840152602081019050610964565b50505050905090810190601f1680156109ac5780820380516001836020036101000a031916815260200191505b509c5050505050505050505050505060405180910390f35b610a06600480360360208110156109da57600080fd5b81019080803573ffffffffffffffffffffffffffffffffffffffff1690602001909291905050506124c5565b604051808973ffffffffffffffffffffffffffffffffffffffff1673ffffffffffffffffffffffffffffffffffffffff1681526020018060200180602001806020018060200180602001806020018060200188810388528f818151815260200191508051906020019080838360005b83811015610a90578082015181840152602081019050610a75565b50505050905090810190601f168015610abd5780820380516001836020036101000a031916815260200191505b5088810387528e818151815260200191508051906020019080838360005b83811015610af6578082015181840152602081019050610adb565b50505050905090810190601f168015610b235780820380516001836020036101000a031916815260200191505b5088810386528d818151815260200191508051906020019080838360005b83811015610b5c578082015181840152602081019050610b41565b50505050905090810190601f168015610b895780820380516001836020036101000a031916815260200191505b5088810385528c818151815260200191508051906020019080838360005b83811015610bc2578082015181840152602081019050610ba7565b50505050905090810190601f168015610bef5780820380516001836020036101000a031916815260200191505b5088810384528b818151815260200191508051906020019080838360005b83811015610c28578082015181840152602081019050610c0d565b50505050905090810190601f168015610c555780820380516001836020036101000a031916815260200191505b5088810383528a818151815260200191508051906020019080838360005b83811015610c8e578082015181840152602081019050610c73565b50505050905090810190601f168015610cbb5780820380516001836020036101000a031916815260200191505b50888103825289818151815260200191508051906020019080838360005b83811015610cf4578082015181840152602081019050610cd9565b50505050905090810190601f168015610d215780820380516001836020036101000a031916815260200191505b509f5050505050505050505050505050505060405180910390f35b610d7260048036036040811015610d5257600080fd5b810190808035906020019092919080359060200190929190505050612955565b604051808581526020018060200180602001848152602001838103835286818151815260200191508051906020019080838360005b83811015610dc2578082015181840152602081019050610da7565b50505050905090810190601f168015610def5780820380516001836020036101000a031916815260200191505b50838103825285818151815260200191508051906020019080838360005b83811015610e28578082015181840152602081019050610e0d565b50505050905090810190601f168015610e555780820380516001836020036101000a031916815260200191505b50965050505050505060405180910390f35b611062600480360360a0811015610e7d57600080fd5b810190808035906020019092919080359060200190640100000000811115610ea457600080fd5b820183602082011115610eb657600080fd5b80359060200191846001830284011164010000000083111715610ed857600080fd5b91908080601f016020809104026020016040519081016040528093929190818152602001838380828437600081840152601f19601f8201169050808301925050505050505091929192908035906020019092919080359060200190640100000000811115610f4557600080fd5b820183602082011115610f5757600080fd5b80359060200191846001830284011164010000000083111715610f7957600080fd5b91908080601f016020809104026020016040519081016040528093929190818152602001838380828437600081840152601f19601f82011690508083019250505050505050919291929080359060200190640100000000811115610fdc57600080fd5b820183602082011115610fee57600080fd5b8035906020019184600183028401116401000000008311171561101057600080fd5b91908080601f016020809104026020016040519081016040528093929190818152602001838380828437600081840152601f19601f820116905080830192505050505050509192919290505050612b1b565b6040518080602001828103825283818151815260200191508051906020019080838360005b838110156110a2578082015181840152602081019050611087565b50505050905090810190601f1680156110cf5780820380516001836020036101000a031916815260200191505b509250505060405180910390f35b6110e5612f70565b6040518082815260200191505060405180910390f35b611103612f7a565b6040518082815260200191505060405180910390f35b6112896004803603606081101561112f57600080fd5b81019080803573ffffffffffffffffffffffffffffffffffffffff1690602001909291908035906020019064010000000081111561116c57600080fd5b82018360208201111561117e57600080fd5b803590602001918460018302840111640100000000831117156111a057600080fd5b91908080601f016020809104026020016040519081016040528093929190818152602001838380828437600081840152601f19601f8201169050808301925050505050505091929192908035906020019064010000000081111561120357600080fd5b82018360208201111561121557600080fd5b8035906020019184600183028401116401000000008311171561123757600080fd5b91908080601f016020809104026020016040519081016040528093929190818152602001838380828437600081840152601f19601f820116905080830192505050505050509192919290505050612f80565b60405180806020018060200180602001806020018060200186810386528b818151815260200191508051906020019080838360005b838110156112d95780820151818401526020810190506112be565b50505050905090810190601f1680156113065780820380516001836020036101000a031916815260200191505b5086810385528a818151815260200191508051906020019080838360005b8381101561133f578082015181840152602081019050611324565b50505050905090810190601f16801561136c5780820380516001836020036101000a031916815260200191505b50868103845289818151815260200191508051906020019080838360005b838110156113a557808201518184015260208101905061138a565b50505050905090810190601f1680156113d25780820380516001836020036101000a031916815260200191505b50868103835288818151815260200191508051906020019080838360005b8381101561140b5780820151818401526020810190506113f0565b50505050905090810190601f1680156114385780820380516001836020036101000a031916815260200191505b50868103825287818151815260200191508051906020019080838360005b83811015611471578082015181840152602081019050611456565b50505050905090810190601f16801561149e5780820380516001836020036101000a031916815260200191505b509a505050505050505050505060405180910390f35b6114e0600480360360208110156114ca57600080fd5b81019080803590602001909291905050506138b7565b604051808a815260200180602001806020018060200180602001806020018060200189815260200188815260200187810387528f818151815260200191508051906020019080838360005b8381101561154657808201518184015260208101905061152b565b50505050905090810190601f1680156115735780820380516001836020036101000a031916815260200191505b5087810386528e818151815260200191508051906020019080838360005b838110156115ac578082015181840152602081019050611591565b50505050905090810190601f1680156115d95780820380516001836020036101000a031916815260200191505b5087810385528d818151815260200191508051906020019080838360005b838110156116125780820151818401526020810190506115f7565b50505050905090810190601f16801561163f5780820380516001836020036101000a031916815260200191505b5087810384528c818151815260200191508051906020019080838360005b8381101561167857808201518184015260208101905061165d565b50505050905090810190601f1680156116a55780820380516001836020036101000a031916815260200191505b5087810383528b818151815260200191508051906020019080838360005b838110156116de5780820151818401526020810190506116c3565b50505050905090810190601f16801561170b5780820380516001836020036101000a031916815260200191505b5087810382528a818151815260200191508051906020019080838360005b83811015611744578082015181840152602081019050611729565b50505050905090810190601f1680156117715780820380516001836020036101000a031916815260200191505b509f5050505050505050505050505050505060405180910390f35b611bf060048036036101008110156117a357600080fd5b81019080803590602001906401000000008111156117c057600080fd5b8201836020820111156117d257600080fd5b803590602001918460018302840111640100000000831117156117f457600080fd5b91908080601f016020809104026020016040519081016040528093929190818152602001838380828437600081840152601f19601f820116905080830192505050505050509192919290803573ffffffffffffffffffffffffffffffffffffffff1690602001909291908035906020019064010000000081111561187757600080fd5b82018360208201111561188957600080fd5b803590602001918460018302840111640100000000831117156118ab57600080fd5b91908080601f016020809104026020016040519081016040528093929190818152602001838380828437600081840152601f19601f8201169050808301925050505050505091929192908035906020019064010000000081111561190e57600080fd5b82018360208201111561192057600080fd5b8035906020019184600183028401116401000000008311171561194257600080fd5b91908080601f016020809104026020016040519081016040528093929190818152602001838380828437600081840152601f19601f820116905080830192505050505050509192919290803590602001906401000000008111156119a557600080fd5b8201836020820111156119b757600080fd5b803590602001918460018302840111640100000000831117156119d957600080fd5b91908080601f016020809104026020016040519081016040528093929190818152602001838380828437600081840152601f19601f82011690508083019250505050505050919291929080359060200190640100000000811115611a3c57600080fd5b820183602082011115611a4e57600080fd5b80359060200191846001830284011164010000000083111715611a7057600080fd5b91908080601f016020809104026020016040519081016040528093929190818152602001838380828437600081840152601f19601f82011690508083019250505050505050919291929080359060200190640100000000811115611ad357600080fd5b820183602082011115611ae557600080fd5b80359060200191846001830284011164010000000083111715611b0757600080fd5b91908080601f016020809104026020016040519081016040528093929190818152602001838380828437600081840152601f19601f82011690508083019250505050505050919291929080359060200190640100000000811115611b6a57600080fd5b820183602082011115611b7c57600080fd5b80359060200191846001830284011164010000000083111715611b9e57600080fd5b91908080601f016020809104026020016040519081016040528093929190818152602001838380828437600081840152601f19601f820116905080830192505050505050509192919290505050613c95565b005b60045481565b600080600080848152602001908152602001600020600701546000808581526020019081526020016000206008015491509150915091565b6000600154905090565b600060016000815480929190600101919050555060405180610120016040528060015481526020018981526020018881526020018781526020018681526020018581526020018481526020016000815260200160008152506000806001548152602001908152602001600020600082015181600001556020820151816001019080519060200190611ccc929190613ed3565b506040820151816002019080519060200190611ce9929190613ed3565b506060820151816003019080519060200190611d06929190613ed3565b506080820151816004019080519060200190611d23929190613ed3565b5060a0820151816005019080519060200190611d40929190613ed3565b5060c0820151816006019080519060200190611d5d929190613ed3565b5060e08201518160070155610100820151816008015590505060008060015481526020019081526020016000206008016000815480929190600101919050555060405180608001604052804281526020018381526020018681526020016000815250600080600154815260200190815260200160002060090160008060006001548152602001908152602001600020600801548152602001908152602001600020600082015181600001556020820151816001019080519060200190611e24929190613ed3565b506040820151816002019080519060200190611e41929190613ed3565b50606082015181600301559050507f3c958191e6ccab503ae675402e1c996a40a0e790bdd851abbd16d3b127e0f51660015486846000604051808581526020018060200180602001848152602001838103835286818151815260200191508051906020019080838360005b83811015611ec7578082015181840152602081019050611eac565b50505050905090810190601f168015611ef45780820380516001836020036101000a031916815260200191505b50838103825285818151815260200191508051906020019080838360005b83811015611f2d578082015181840152602081019050611f12565b50505050905090810190601f168015611f5a5780820380516001836020036101000a031916815260200191505b50965050505050505060405180910390a1979650505050505050565b60606003826040518082805190602001908083835b60208310611fae5780518252602082019150602081019050602083039250611f8b565b6001836020036101000a03801982511681845116808217855250505050505090500191505090815260200160405180910390208054600181600116156101000203166002900480601f0160208091040260200160405190810160405280929190818152602001828054600181600116156101000203166002900480156120755780601f1061204a57610100808354040283529160200191612075565b820191906000526020600020905b81548152906001019060200180831161205857829003601f168201915b50505050509050919050565b6060806060806060806000808881526020019081526020016000206001016000808981526020019081526020016000206002016000808a81526020019081526020016000206003016000808b81526020019081526020016000206004016000808c81526020019081526020016000206005016000808d8152602001908152602001600020600601858054600181600116156101000203166002900480601f01602080910402602001604051908101604052809291908181526020018280546001816001161561010002031660029004801561219d5780601f106121725761010080835404028352916020019161219d565b820191906000526020600020905b81548152906001019060200180831161218057829003601f168201915b50505050509550848054600181600116156101000203166002900480601f0160208091040260200160405190810160405280929190818152602001828054600181600116156101000203166002900480156122395780601f1061220e57610100808354040283529160200191612239565b820191906000526020600020905b81548152906001019060200180831161221c57829003601f168201915b50505050509450838054600181600116156101000203166002900480601f0160208091040260200160405190810160405280929190818152602001828054600181600116156101000203166002900480156122d55780601f106122aa576101008083540402835291602001916122d5565b820191906000526020600020905b8154815290600101906020018083116122b857829003601f168201915b50505050509350828054600181600116156101000203166002900480601f0160208091040260200160405190810160405280929190818152602001828054600181600116156101000203166002900480156123715780601f1061234657610100808354040283529160200191612371565b820191906000526020600020905b81548152906001019060200180831161235457829003601f168201915b50505050509250818054600181600116156101000203166002900480601f01602080910402602001604051908101604052809291908181526020018280546001816001161561010002031660029004801561240d5780601f106123e25761010080835404028352916020019161240d565b820191906000526020600020905b8154815290600101906020018083116123f057829003601f168201915b50505050509150808054600181600116156101000203166002900480601f0160208091040260200160405190810160405280929190818152602001828054600181600116156101000203166002900480156124a95780601f1061247e576101008083540402835291602001916124a9565b820191906000526020600020905b81548152906001019060200180831161248c57829003601f168201915b5050505050905095509550955095509550955091939550919395565b60026020528060005260406000206000915090508060000160009054906101000a900473ffffffffffffffffffffffffffffffffffffffff1690806001018054600181600116156101000203166002900480601f0160208091040260200160405190810160405280929190818152602001828054600181600116156101000203166002900480156125975780601f1061256c57610100808354040283529160200191612597565b820191906000526020600020905b81548152906001019060200180831161257a57829003601f168201915b505050505090806002018054600181600116156101000203166002900480601f0160208091040260200160405190810160405280929190818152602001828054600181600116156101000203166002900480156126355780601f1061260a57610100808354040283529160200191612635565b820191906000526020600020905b81548152906001019060200180831161261857829003601f168201915b505050505090806003018054600181600116156101000203166002900480601f0160208091040260200160405190810160405280929190818152602001828054600181600116156101000203166002900480156126d35780601f106126a8576101008083540402835291602001916126d3565b820191906000526020600020905b8154815290600101906020018083116126b657829003601f168201915b505050505090806004018054600181600116156101000203166002900480601f0160208091040260200160405190810160405280929190818152602001828054600181600116156101000203166002900480156127715780601f1061274657610100808354040283529160200191612771565b820191906000526020600020905b81548152906001019060200180831161275457829003601f168201915b505050505090806005018054600181600116156101000203166002900480601f01602080910402602001604051908101604052809291908181526020018280546001816001161561010002031660029004801561280f5780601f106127e45761010080835404028352916020019161280f565b820191906000526020600020905b8154815290600101906020018083116127f257829003601f168201915b505050505090806006018054600181600116156101000203166002900480601f0160208091040260200160405190810160405280929190818152602001828054600181600116156101000203166002900480156128ad5780601f10612882576101008083540402835291602001916128ad565b820191906000526020600020905b81548152906001019060200180831161289057829003601f168201915b505050505090806007018054600181600116156101000203166002900480601f01602080910402602001604051908101604052809291908181526020018280546001816001161561010002031660029004801561294b5780601f106129205761010080835404028352916020019161294b565b820191906000526020600020905b81548152906001019060200180831161292e57829003601f168201915b5050505050905088565b60006060806000612964613f53565b600080888152602001908152602001600020600901600087815260200190815260200160002060405180608001604052908160008201548152602001600182018054600181600116156101000203166002900480601f016020809104026020016040519081016040528092919081815260200182805460018160011615610100020316600290048015612a385780601f10612a0d57610100808354040283529160200191612a38565b820191906000526020600020905b815481529060010190602001808311612a1b57829003601f168201915b50505050508152602001600282018054600181600116156101000203166002900480601f016020809104026020016040519081016040528092919081815260200182805460018160011615610100020316600290048015612ada5780601f10612aaf57610100808354040283529160200191612ada565b820191906000526020600020905b815481529060010190602001808311612abd57829003601f168201915b505050505081526020016003820154815250509050806000015181602001518260400151836060015182925081915094509450945094505092959194509250565b60606002856040516020018082805190602001908083835b60208310612b565780518252602082019150602081019050602083039250612b33565b6001836020036101000a0380198251168184511680821785525050505050509050019150506040516020818303038152906040526040518082805190602001908083835b60208310612bbd5780518252602082019150602081019050602083039250612b9a565b6001836020036101000a038019825116818451168082178552505050505050905001915050602060405180830381855afa158015612bff573d6000803e3d6000fd5b5050506040513d6020811015612c1457600080fd5b8101908080519060200190929190505050600260008089815260200190815260200160002060090160008060008b81526020019081526020016000206008015481526020019081526020016000206002016040516020018082805460018160011615610100020316600290048015612cc35780601f10612ca1576101008083540402835291820191612cc3565b820191906000526020600020905b815481529060010190602001808311612caf575b50509150506040516020818303038152906040526040518082805190602001908083835b60208310612d0a5780518252602082019150602081019050602083039250612ce7565b6001836020036101000a038019825116818451168082178552505050505050905001915050602060405180830381855afa158015612d4c573d6000803e3d6000fd5b5050506040513d6020811015612d6157600080fd5b810190808051906020019092919050505014612d7c57600080fd5b6000808781526020019081526020016000206008016000815480929190600101919050555060405180608001604052804281526020018481526020018381526020018581525060008088815260200190815260200160002060090160008060008a8152602001908152602001600020600801548152602001908152602001600020600082015181600001556020820151816001019080519060200190612e23929190613ed3565b506040820151816002019080519060200190612e40929190613ed3565b50606082015181600301559050507f5d821b8b6ce18465607d9c51957a48484030b98fc16bf4b5a700a595f2b2bd6f86838686604051808581526020018060200184815260200180602001838103835286818151815260200191508051906020019080838360005b83811015612ec3578082015181840152602081019050612ea8565b50505050905090810190601f168015612ef05780820380516001836020036101000a031916815260200191505b50838103825284818151815260200191508051906020019080838360005b83811015612f29578082015181840152602081019050612f0e565b50505050905090810190601f168015612f565780820380516001836020036101000a031916815260200191505b50965050505050505060405180910390a195945050505050565b6000600454905090565b60015481565b60608060608060606002876040516020018082805190602001908083835b60208310612fc15780518252602082019150602081019050602083039250612f9e565b6001836020036101000a0380198251168184511680821785525050505050509050019150506040516020818303038152906040526040518082805190602001908083835b602083106130285780518252602082019150602081019050602083039250613005565b6001836020036101000a038019825116818451168082178552505050505050905001915050602060405180830381855afa15801561306a573d6000803e3d6000fd5b5050506040513d602081101561307f57600080fd5b810190808051906020019092919050505060028060008b73ffffffffffffffffffffffffffffffffffffffff1673ffffffffffffffffffffffffffffffffffffffff16815260200190815260200160002060010160405160200180828054600181600116156101000203166002900480156131315780601f1061310f576101008083540402835291820191613131565b820191906000526020600020905b81548152906001019060200180831161311d575b50509150506040516020818303038152906040526040518082805190602001908083835b602083106131785780518252602082019150602081019050602083039250613155565b6001836020036101000a038019825116818451168082178552505050505050905001915050602060405180830381855afa1580156131ba573d6000803e3d6000fd5b5050506040513d60208110156131cf57600080fd5b8101908080519060200190929190505050146131ea57600080fd5b6002866040516020018082805190602001908083835b602083106132235780518252602082019150602081019050602083039250613200565b6001836020036101000a0380198251168184511680821785525050505050509050019150506040516020818303038152906040526040518082805190602001908083835b6020831061328a5780518252602082019150602081019050602083039250613267565b6001836020036101000a038019825116818451168082178552505050505050905001915050602060405180830381855afa1580156132cc573d6000803e3d6000fd5b5050506040513d60208110156132e157600080fd5b810190808051906020019092919050505060028060008b73ffffffffffffffffffffffffffffffffffffffff1673ffffffffffffffffffffffffffffffffffffffff16815260200190815260200160002060020160405160200180828054600181600116156101000203166002900480156133935780601f10613371576101008083540402835291820191613393565b820191906000526020600020905b81548152906001019060200180831161337f575b50509150506040516020818303038152906040526040518082805190602001908083835b602083106133da57805182526020820191506020810190506020830392506133b7565b6001836020036101000a038019825116818451168082178552505050505050905001915050602060405180830381855afa15801561341c573d6000803e3d6000fd5b5050506040513d602081101561343157600080fd5b81019080805190602001909291905050501461344c57600080fd5b600260008973ffffffffffffffffffffffffffffffffffffffff1673ffffffffffffffffffffffffffffffffffffffff168152602001908152602001600020600301600260008a73ffffffffffffffffffffffffffffffffffffffff1673ffffffffffffffffffffffffffffffffffffffff168152602001908152602001600020600401600260008b73ffffffffffffffffffffffffffffffffffffffff1673ffffffffffffffffffffffffffffffffffffffff168152602001908152602001600020600501600260008c73ffffffffffffffffffffffffffffffffffffffff1673ffffffffffffffffffffffffffffffffffffffff168152602001908152602001600020600601600260008d73ffffffffffffffffffffffffffffffffffffffff1673ffffffffffffffffffffffffffffffffffffffff168152602001908152602001600020600701848054600181600116156101000203166002900480601f01602080910402602001604051908101604052809291908181526020018280546001816001161561010002031660029004801561362b5780601f106136005761010080835404028352916020019161362b565b820191906000526020600020905b81548152906001019060200180831161360e57829003601f168201915b50505050509450838054600181600116156101000203166002900480601f0160208091040260200160405190810160405280929190818152602001828054600181600116156101000203166002900480156136c75780601f1061369c576101008083540402835291602001916136c7565b820191906000526020600020905b8154815290600101906020018083116136aa57829003601f168201915b50505050509350828054600181600116156101000203166002900480601f0160208091040260200160405190810160405280929190818152602001828054600181600116156101000203166002900480156137635780601f1061373857610100808354040283529160200191613763565b820191906000526020600020905b81548152906001019060200180831161374657829003601f168201915b50505050509250818054600181600116156101000203166002900480601f0160208091040260200160405190810160405280929190818152602001828054600181600116156101000203166002900480156137ff5780601f106137d4576101008083540402835291602001916137ff565b820191906000526020600020905b8154815290600101906020018083116137e257829003601f168201915b50505050509150808054600181600116156101000203166002900480601f01602080910402602001604051908101604052809291908181526020018280546001816001161561010002031660029004801561389b5780601f106138705761010080835404028352916020019161389b565b820191906000526020600020905b81548152906001019060200180831161387e57829003601f168201915b5050505050905094509450945094509450939792965093509350565b6000602052806000526040600020600091509050806000015490806001018054600181600116156101000203166002900480601f0160208091040260200160405190810160405280929190818152602001828054600181600116156101000203166002900480156139695780601f1061393e57610100808354040283529160200191613969565b820191906000526020600020905b81548152906001019060200180831161394c57829003601f168201915b505050505090806002018054600181600116156101000203166002900480601f016020809104026020016040519081016040528092919081815260200182805460018160011615610100020316600290048015613a075780601f106139dc57610100808354040283529160200191613a07565b820191906000526020600020905b8154815290600101906020018083116139ea57829003601f168201915b505050505090806003018054600181600116156101000203166002900480601f016020809104026020016040519081016040528092919081815260200182805460018160011615610100020316600290048015613aa55780601f10613a7a57610100808354040283529160200191613aa5565b820191906000526020600020905b815481529060010190602001808311613a8857829003601f168201915b505050505090806004018054600181600116156101000203166002900480601f016020809104026020016040519081016040528092919081815260200182805460018160011615610100020316600290048015613b435780601f10613b1857610100808354040283529160200191613b43565b820191906000526020600020905b815481529060010190602001808311613b2657829003601f168201915b505050505090806005018054600181600116156101000203166002900480601f016020809104026020016040519081016040528092919081815260200182805460018160011615610100020316600290048015613be15780601f10613bb657610100808354040283529160200191613be1565b820191906000526020600020905b815481529060010190602001808311613bc457829003601f168201915b505050505090806006018054600181600116156101000203166002900480601f016020809104026020016040519081016040528092919081815260200182805460018160011615610100020316600290048015613c7f5780601f10613c5457610100808354040283529160200191613c7f565b820191906000526020600020905b815481529060010190602001808311613c6257829003601f168201915b5050505050908060070154908060080154905089565b600460008154809291906001019190505550856003896040518082805190602001908083835b60208310613cde5780518252602082019150602081019050602083039250613cbb565b6001836020036101000a03801982511681845116808217855250505050505090500191505090815260200160405180910390209080519060200190613d24929190613f7b565b506040518061010001604052808873ffffffffffffffffffffffffffffffffffffffff16815260200187815260200186815260200189815260200185815260200184815260200183815260200182815250600260008973ffffffffffffffffffffffffffffffffffffffff1673ffffffffffffffffffffffffffffffffffffffff16815260200190815260200160002060008201518160000160006101000a81548173ffffffffffffffffffffffffffffffffffffffff021916908373ffffffffffffffffffffffffffffffffffffffff1602179055506020820151816001019080519060200190613e17929190613ed3565b506040820151816002019080519060200190613e34929190613ed3565b506060820151816003019080519060200190613e51929190613ed3565b506080820151816004019080519060200190613e6e929190613ed3565b5060a0820151816005019080519060200190613e8b929190613ed3565b5060c0820151816006019080519060200190613ea8929190613ed3565b5060e0820151816007019080519060200190613ec5929190613ed3565b509050505050505050505050565b828054600181600116156101000203166002900490600052602060002090601f016020900481019282601f10613f1457805160ff1916838001178555613f42565b82800160010185558215613f42579182015b82811115613f41578251825591602001919060010190613f26565b5b509050613f4f9190613ffb565b5090565b6040518060800160405280600081526020016060815260200160608152602001600081525090565b828054600181600116156101000203166002900490600052602060002090601f016020900481019282601f10613fbc57805160ff1916838001178555613fea565b82800160010185558215613fea579182015b82811115613fe9578251825591602001919060010190613fce565b5b509050613ff79190613ffb565b5090565b61401d91905b80821115614019576000816000905550600101614001565b5090565b9056fea265627a7a723158203c2b8a0d1a7f31a1ba86ec92c89bc12885c628ffa4452a184ac1a79aacc4f5e564736f6c63430005100032",
  "source": "// SPDX-License-Identifier: MIT\r\npragma solidity >=0.4.22 <0.9.0;\r\n\r\nlibrary AssetLibrary {\r\n    struct Status {\r\n        uint256 time;\r\n        string status;\r\n        string owner;\r\n        uint256 verified;\r\n    }\r\n    struct Blood {\r\n        uint256 id;\r\n        string uniqueid;\r\n        string batch;\r\n        string aadhar;\r\n        string currentPosition;\r\n        string blood_group;\r\n        string expiry_date;\r\n        uint256 verified;\r\n        uint256 statusCount;\r\n        mapping(uint256 => Status) status;\r\n    }\r\n\r\n    struct Login {\r\n        // uint id;\r\n        address payable user_address;\r\n        string email;\r\n        string password;\r\n        string name;\r\n        string typeID;\r\n        string addressUser;\r\n        string phone;\r\n        string location;\r\n    }\r\n}\r\n\r\ncontract AssetTracker {\r\n    mapping(uint256 => AssetLibrary.Blood) public BloodStore;\r\n\r\n    uint256 public bloodCount = 0;\r\n\r\n    function createAsset(\r\n        string memory _uniqueid,\r\n        string memory _batch,\r\n        string memory _aadhar,\r\n        string memory _currentPosition,\r\n        string memory _blood_group,\r\n        string memory _expiry_date,\r\n        string memory _status\r\n    ) public returns (uint256) {\r\n        bloodCount++;\r\n        BloodStore[bloodCount] = AssetLibrary.Blood(\r\n            bloodCount,\r\n            _uniqueid,\r\n            _batch,\r\n            _aadhar,\r\n            _currentPosition,\r\n            _blood_group,\r\n            _expiry_date,\r\n            0,\r\n            0\r\n        );\r\n        BloodStore[bloodCount].statusCount++;\r\n        BloodStore[bloodCount].status[\r\n            BloodStore[bloodCount].statusCount\r\n        ] = AssetLibrary.Status(block.timestamp, _status, _currentPosition, 0);\r\n        emit BloodCreate(bloodCount, _currentPosition, _status, 0);\r\n    }\r\n\r\n    function getBlood(uint256 _id)\r\n        public\r\n        view\r\n        returns (\r\n            string memory,\r\n            string memory,\r\n            string memory,\r\n            string memory,\r\n            string memory,\r\n            string memory\r\n        )\r\n    {\r\n        return (\r\n            BloodStore[_id].uniqueid,\r\n            BloodStore[_id].batch,\r\n            BloodStore[_id].aadhar,\r\n            BloodStore[_id].currentPosition,\r\n            BloodStore[_id].blood_group,\r\n            BloodStore[_id].expiry_date\r\n        );\r\n    }\r\n\r\n    function getBlood2(uint256 _id) public view returns (uint256, uint256) {\r\n        return (BloodStore[_id].verified, BloodStore[_id].statusCount);\r\n    }\r\n\r\n    function transferAsset(\r\n        uint256 _id,\r\n        string memory _oldUser,\r\n        uint256 verified,\r\n        string memory _status,\r\n        string memory _newUser\r\n    ) public returns (string memory) {\r\n        require(\r\n            sha256(\r\n                abi.encodePacked(\r\n                    (BloodStore[_id].status[BloodStore[_id].statusCount].owner)\r\n                )\r\n            ) == sha256(abi.encodePacked((_oldUser)))\r\n        );\r\n        BloodStore[_id].statusCount++;\r\n        BloodStore[_id].status[BloodStore[_id].statusCount] = AssetLibrary\r\n            .Status(block.timestamp, _status, _newUser, verified);\r\n        emit BloodTransfer(_id, _newUser, verified, _status);\r\n    }\r\n\r\n    function getBloodCount() public view returns (uint256) {\r\n        return bloodCount;\r\n    }\r\n\r\n    function getStatus(uint256 _id, uint256 _statusCount)\r\n        public\r\n        view\r\n        returns (\r\n            uint256,\r\n            string memory,\r\n            string memory,\r\n            uint256\r\n        )\r\n    {\r\n        AssetLibrary.Status memory s = BloodStore[_id].status[_statusCount];\r\n        return (s.time, s.status, s.owner, s.verified);\r\n    }\r\n\r\n    event BloodTransfer(\r\n        uint256 id,\r\n        string newOwner,\r\n        uint256 verified,\r\n        string status\r\n    );\r\n\r\n    event BloodCreate(\r\n        uint256 id,\r\n        string currentPosition,\r\n        string status,\r\n        uint256 verified\r\n    );\r\n\r\n    mapping(address => AssetLibrary.Login) public LoginStore;\r\n    mapping(string => string) nametoemail;\r\n    \r\n    uint256 public userCount = 0;\r\n\r\n    function addidentity(\r\n        string memory _name,\r\n        address payable user_address,\r\n        string memory _email,\r\n        string memory _password,\r\n        string memory _typeID,\r\n        string memory _address,\r\n        string memory _phone,\r\n        string memory _location\r\n    ) public {\r\n        userCount++;\r\n        nametoemail[_name] = _email;\r\n        LoginStore[user_address] = AssetLibrary.Login(\r\n            user_address,\r\n            _email,\r\n            _password,\r\n            _name,\r\n            _typeID,\r\n            _address,\r\n            _phone,\r\n            _location\r\n        );\r\n    }\r\n    \r\n    function getemail(string memory _name) public view returns (string memory) {\r\n        return nametoemail[_name];\r\n    }\r\n\r\n    function getLogin(\r\n        address payable _add,\r\n        string memory _email,\r\n        string memory _password\r\n    )\r\n        public\r\n        view\r\n        returns (\r\n            string memory,\r\n            string memory,\r\n            string memory,\r\n            string memory,\r\n            string memory\r\n        )\r\n    {\r\n        require(\r\n            sha256(abi.encodePacked((LoginStore[_add].email))) ==\r\n                sha256(abi.encodePacked((_email)))\r\n        );\r\n        require(\r\n            sha256(abi.encodePacked((LoginStore[_add].password))) ==\r\n                sha256(abi.encodePacked((_password)))\r\n        );\r\n        return (\r\n            LoginStore[_add].name,\r\n            LoginStore[_add].typeID,\r\n            LoginStore[_add].addressUser,\r\n            LoginStore[_add].phone,\r\n            LoginStore[_add].location\r\n        );\r\n    }\r\n\r\n    function getUserCount() public view returns (uint256) {\r\n        return userCount;\r\n    }\r\n}",
  "sourcePath": "C:\\Users\\Raj\\Desktop\\dev\\Major project\\src\\contracts\\AssetTracker.sol",
  "compiler": {
    "name": "solc",
    "version": "0.5.16+commit.9c3226ce.Emscripten.clang"
  },
  "schemaVersion": "3.4.3",
  "updatedAt": "2021-10-15T15:42:00.321Z",
  "networkType": "ethereum",
  "devdoc": {
    "methods": {}
  },
  "userdoc": {
    "methods": {}
  }
}